:020000040800F2
:1000000060040020C900000825180008B10E00088F
:1000100000000000000000000000000000000000E0
:10002000000000000000000000000000591C000853
:100030000000000000000000691B0008591F0008B4
:10004000DB00000800000000DB000008DB00000807
:10005000DB000008010C0008450C0008DB0000086C
:1000600000000000DB000008DB000008DB000008E7
:10007000DB000008DB000008DB00000800000000D7
:10008000DB0000088920000800000000DB000008F9
:10009000DB000008DB000008DB000008DB000008D4
:1000A000DB000008DB000008DB000008DB000008C4
:1000B000DB0000080348854600F038FA0048004796
:1000C0006125000860040020044880470448004778
:1000D000FEE7FEE7FEE7FEE7FEE7FEE72D2000086D
:1000E000B500000830B50B4601460020202201244F
:1000F00009E00D46D5409D4205D31D469540491B5C
:100100002546954040191546521E002DF1DC30BDA4
:1001100070B500242546002801DA01244042002958
:1001200001DA01254942FFF7DDFFAC4200D0404231
:10013000002C00D0494270BDD2B201E00270401CD8
:10014000491EFBD270470022F6E710B513460A4657
:1001500004461946FFF7F0FF204610BD0FB400B566
:1001600089B00BA800906A4603480A9900F090F9FC
:1001700009B008BC04B0184750000020FFB50027A4
:10018000FF4383B000205C6801909E681D46A9690A
:100190007F1C049888470090296A88470028F6D178
:1001A0000098401C0CD0032040028443002E19DD2F
:1001B000600614D500982B2809D02D280FD103E014
:1001C0000020C04307B0F0BD012080020443A969AC
:1001D0007F1C04988847761E0090002E02DD009850
:1001E000302803D00598002825D035E001204002B2
:1001F0000443A969761E7F1C049888470090002E4E
:1002000003DD782805D0582803D00598002810D0A1
:1002100022E00598002801D010281DD101204002BD
:100220008443A969761E7F1C04988847009010209B
:1002300002E0082000E00A2005900DE001214902BB
:100240000C43059A0199761E514308180190A9693B
:100250007F1C049888470090002E05DD05990098C2
:1002600000F006F90028E9DAE96904988847A00552
:1002700002D40120C043A5E7E00722D1600611D5D2
:100280006005019800D5404229680A1D2A60096866
:10029000220501D5087014E0220701D5088010E07E
:1002A00008600EE02868011D29600068210502D55C
:1002B0000199017005E02107019901D5018000E055
:1002C000016038467EE7FFB5002083B0009050689B
:1002D000019091691446002697680498884705465E
:1002E0000C990698084305D009E0A169761C04988A
:1002F00088470546216A284688470028F5D1681CAA
:1003000003D00198C00704D017E00020C04307B015
:10031000F0BD2068011D2160006800900DE001988B
:10032000C00704D1009805700098401C0090A16996
:10033000761C7F1E049888470546002F1CDD681C2C
:100340001AD0069800280FD0E817C00E40194111A6
:100350008A0006994009511840012A1A09680120AB
:1003600090400142DBD107E00C980028D7D1216AE8
:10037000284688470028D2D0E169049888470C981D
:10038000002807D1002E05DD0198C00702D1009892
:1003900000210170A068B84204DD0C98002804D048
:1003A000002F02D00120C043B1E73046AFE702463C
:1003B00070B54A40D30FDB0740002DD04A002AD049
:1003C000010E140E000212020919400A520A841882
:1003D000E50104465443000A120A2E045043A419AE
:1003E0004219200CC543AA18120C0125AD03521C5A
:1003F000521912047F39240400D0521C104301D436
:100400004000491EC2B20C06C0092018401C40081A
:10041000802A02D003E0002070BD4008400000297F
:1004200000DA0020184370BDC217C10F504010B54C
:100430004018CA079623002100F03EF810BDC20FF5
:10044000410040020123400ADB05D207090EC01813
:100450007F2901DA00207047962903DC9623591A78
:10046000C84001E096398840002AF4D040427047E5
:100470003A2800D23038202302469A43412A01D339
:1004800010463738884201D30020C043704700002F
:1004900010B5034B9361034BD36100F075F810BDA9
:1004A000292500086F050008002904DA401C4900CE
:1004B00001D140084000704770B40024050C05D1FC
:1004C0001024000402D1002921D01124050E01D1ED
:1004D00000020834050F01D10001241D850F01D150
:1004E0008000A41C002801DB4000641C002908D007
:1004F00020252E1B0D46F540A14000D001212943A7
:10050000084301061B1B000ADB1D02D5002070BC3E
:100510007047DB05181880180029F8DA401C4900DC
:10052000F5D170BC4008400070470000064C012522
:10053000064E05E0E36807CC2B430C3C984710348B
:10054000B442F7D3FFF7BAFD94460008B44600085A
:1005500010B5094908784C1C002803D0401E0870CB
:10056000205C10BD00210720ABBE207010BD0249E9
:100570000878421C0A7070475800002002681378FF
:10058000511801601846704710B5D1600449516197
:100590000449116200211161114600F00DF810BDEF
:1005A0007D050008A905000810B50F21C0B2490259
:1005B00000F09EF910BD0000F3B58DB000200A9048
:1005C00001200B90002608460C300C460990626909
:1005D000012109989047051E2ED0252D2DD0216A86
:1005E0008847002818D06269012109989047216A3C
:1005F00088470028F7D1411E62690998904700E0BA
:10060000761CA1690D988847216A88470028F7D190
:10061000E1690D988847DAE7A1690D988847074690
:10062000A84201D1761CD2E7E1690D9888477F1C6A
:1006300002D10A98002877D049E1002762693D4637
:100640003946099890472A280CD1626901210998F6
:100650009047012506E00A214F433F18303FEBD475
:1006600010200543626901210998904701463039FD
:100670000A2903D29B498F42DEDCECE7E90600D46D
:10068000994F6C280AD04C2810D0682824D06A28AA
:100690002ED074280CD07A280AD00DE0626901218E
:1006A000099890476C2823D004211CE020200543A2
:1006B0006269012109989047A760656065284FD05D
:1006C00026DC582839D01ADC452849D012DC2528E8
:1006D00034D04128B0D143E06269012109989047A4
:1006E000682802D008210D43E6E70120C002DEE7BA
:1006F0000220DCE7462833D047282CD130E05B28A5
:1007000070D061282CD063286CD0642823D161E09C
:100710006F284FD009DC662822D0672820D06928AE
:1007200026D06E2817D12EE0CDE070284DD073284A
:100730006FD075284ED078280DD154E0A1690D985E
:1007400088470546252800D16CE7E1690D98884760
:100750006D1C00D16DE7BAE00A224CE00A2252E09B
:10076000012023466A46C0430D99C046C046A3E017
:100770002846402108436060A807234601D500228F
:1007800039E000223FE0E80700D020E72068011DA3
:1007900021600068290501D5067018E7290701D5F1
:1007A000068014E7A90703D5F117066041600EE73C
:1007B00006600CE72846402108436060A8072346EE
:1007C00001D5082217E008221DE0484928460840C4
:1007D000606016E02846402108436060A807234671
:1007E000BCD5B9E715E02846402108436060A8075A
:1007F00007D5234610220120C0430D99C046C046AC
:100800005AE0234610220120C0430D99FFF7B6FCA1
:1008100052E000210C910B460091632802D05B2826
:1008200007D043E0E80601D40120A0600120009039
:100830003CE062690121099890475E2805D10120BA
:100840000C9001466269099890472169002906D1F8
:100850000B4601AA8F00491CD3510829FADB002856
:1008600035D0216900290ED1C117C90E09184A11C6
:10087000930001AA9A1849094901411A01201368F5
:1008800088400343136062690121099890475D28FD
:10089000E5D10C98002808D0002001AB81005A58FF
:1008A000401CD2435A500828F8DB01AB01202246F5
:1008B000C0430D99FFF707FD00280ADA401C06D156
:1008C0000B98002803D00020C0430FB0F0BD0A9859
:1008D000FBE7E90702D10A99491C0A913618002062
:1008E0000B9074E6CCCCCC0CFFFFFF7FF1F7FFFF41
:1008F0007F2801D9002207E0054B42089A5CC00717
:1009000000D112091207120F0120904008407047D1
:1009100052460008FFB0D3B0002003900790B448BF
:1009200001210170B14C5021002001F0D1F80025C7
:100930000126B04FF602BE61FA2000F04FFDBE6204
:10094000FA2000F04BFD6D1CEDB2042DF0D3002613
:1009500000200090142000F041FD01F051F9002723
:10096000049001F04DF904990546401A012149030C
:10097000C84202DA48002D1805E0012149038842E7
:1009800001DD48002D1A0098401900900A2000F05F
:1009900025FD7F1CFFB204950A2FE2D30A2100989F
:1009A000FFF7B6FB01218903884201DD401A04E00C
:1009B000002802DA012189034018B20009A98850F1
:1009C00001F068F8642000F009FD761C36B2C72EED
:1009D000BEDD87480021017001F05CF87D20C00079
:1009E00000F0FCFCC72600200090142000F0F6FC6C
:1009F00001F006F90027049001F002F90499054678
:100A0000401A01214903C84202DA48002D1805E0C6
:100A100001214903884201DD48002D1A0098401940
:100A200000900A2000F0DAFC7F1CFFB204950A2F28
:100A3000E2D30A210098FFF76BFB0121890388426A
:100A400001DD401A04E0002802DA01218903401880
:100A5000B10009AF7A581018C20F10184010785022
:100A600001F018F8642000F0B9FC761E36B2002EB2
:100A7000B9DA61490020486388630546C821681CCB
:100A8000FFF730FB880009AE3758C8212846FFF72A
:100A900029FB880030585949381A884203DA012165
:100AA0008903401806E055494942884202DD012188
:100AB0008903401A0021AB000CE009AAD258521851
:100AC000D617B60CB618B60BB603B24201D10395D1
:100AD0000791491C8142F0DB6D1CEDB2C82DCDD3CE
:100AE00000F0AEF900F0D0F8039D2846C93004901C
:100AF0006CE0C821681CFFF70BFB880009AE375873
:100B0000C8212846FFF704FB880030583E1A3B48AE
:100B1000864202DA012080033618039885421AD1F2
:100B20006803079F089013E078033146FFF7F0FA57
:100B30000899401819210904FFF7EAFA08466421C8
:100B4000FFF7E6FA81B2204600F098F9A41C7F1C5A
:100B5000B742E9DB38E0C83085421BD10027680383
:100B6000089013E078033146FFF7D2FA089940184D
:100B700019210904FFF7CCFA08466421FFF7C8FAE7
:100B800081B2204600F07AF9A41C7F1C07988742A6
:100B9000E8DB19E000276803089013E0780331468A
:100BA000FFF7B6FA0899401819210904FFF7B0FABF
:100BB00008466421FFF7ACFA81B2204600F05EF9E6
:100BC000A41C7F1CB742E9DB04986D1C854290DBB6
:100BD00000F02EF90124E402064DFF26F53668697F
:100BE00060406861304600F0F9FBF8E700800008DB
:100BF00000000020000400480004004068C5FFFF1A
:100C000010B5022000F0CAF900280FD00A490220CE
:100C100048610146094800F01FFA0949702201287D
:100C200005D00B681020934303430B6010BD086888
:100C30009043086010BD000000040140000400481B
:100C4000002C014010B5042000F0A8F900280ED0B7
:100C50000949042048610146084800F0FDF90849A7
:100C6000012805D00020087006494863886310BD3C
:100C70000120087010BD000000040140000400487D
:100C8000020000200004004000B5304800F09EF84B
:100C90002F4800F09BF82F4800F098F82E4800F0FD
:100CA00095F82E4800F092F82D4800F08FF82D4866
:100CB00000F08CF82C4800F089F82C4800F086F8F9
:100CC0002B4800F083F82B4800F080F82A4800F009
:100CD0007DF82A4800F07AF8294800F077F829488A
:100CE00000F074F8284800F071F8284800F06EF819
:100CF000274800F06BF8274800F068F8264800F015
:100D000065F8264800F062F8254800F05FF82548AD
:100D100000F05CF8244800F059F8244800F056F838
:100D2000234800F053F8234800F050F8224800F020
:100D30004DF8224800F04AF8214800F047F82148D1
:100D400000F044F8204800F041F800BD00800008A1
:100D50000084000800880008008C0008009000084B
:100D60000094000800980008009C000800A00008FB
:100D700000A4000800A8000800AC000800B00008AB
:100D800000B4000800B8000800BC000800C000085B
:100D900000C4000800C8000800CC000800D000080B
:100DA00000D4000800D8000800DC000800E00008BB
:100DB00000E4000800E8000800EC000800F000086B
:100DC00000F4000800F8000800FC000870B50D4EA3
:100DD0000546304600F040F8002811D10A4B18694A
:100DE0000224204318615D6118694021084318619D
:100DF000304600F031F8012802D01969A143196189
:100E000070BD0000FF5F0000002002400748C0687E
:100E1000C10701D001207047410701D5022070476A
:100E2000C00601D503207047002070470020024013
:100E3000024801698022114301617047002002408D
:100E400003480249416003494160704723016745F7
:100E500000200240AB89EFCD00B50246FFF7D6FF78
:100E6000012803D0002A00D1FF2000BD012001F09D
:100E70004BFA521E1204120CF0D1F5E730B50546BC
:100E80000C46FF20FFF7E8FF00280ED1074B18693A
:100E90000121084318612C80FF20FFF7DDFF0128A6
:100EA00003D0196949084900196130BD002002408A
:100EB000FEE7000008B504494A6902434A614969EE
:100EC0000140009108BD00000010024008B504492F
:100ED000CA690243CA61C9690140009108BD0000A6
:100EE0000010024008B504498A6902438A61896991
:100EF0000140009108BD00000010024010B50479C7
:100F0000012325490268002C3DD0002A42D04479B3
:100F1000002C0FD0012C15D0022C16D00023827982
:100F2000002A37D0012A18D0022A1FD0032A21D044
:100F300000232FE04C6894434C6002680C68144313
:100F40000C60ECE70C68944301E00C6814430C60FF
:100F500002684C6814434C60E1E70268CC68944333
:100F6000CC6000688A6802438A6013E002688C687B
:100F7000944302E002688C6814438C600068CA687D
:100F80000243CA6006E00C6894430C6000684A683B
:100F900082434A60184610BD000401400349496974
:100FA000884301D0002070470120704700040140B1
:100FB000F0B500243EE001232A46A3401A4038D071
:100FC0004F680668134653435D005D19AE435F43A7
:100FD0003E4306604E68012E01D0022E05D18F6877
:100FE00086685F43AE433E4386600F69C668AE4382
:100FF0001D467D432E43C6604D68022D19D1FF2A40
:101000000AD84E69056A534353431A01D21A9543CD
:1010100073431D4305620CE0130A1A465A435A43B0
:101020005A4313019E1A4D69436A6A43B3431343FB
:101030004362641C0A681546E240BCD14A68012A32
:1010400001D0022A06D1CB6841682A4691435A430F
:10105000114341600120F0BD0069814301D00020AF
:101060007047012070470069814301D0002070471C
:101070000120704710B5036849434C000C19A34385
:1010800051430B43036010BD10B5C36849434C0086
:101090000C19A34351430B43C36010BD10B57D2110
:1010A000C900FFF71FF80449401E4861002088610D
:1010B0000520086110BD000000E000E010B5044606
:1010C00000F06EFD206000F051FD606000F05CFDFE
:1010D000A06010BD014610B5002000290FD11049B5
:1010E0000A6B9207920F012A0AD0022A11D0032A12
:1010F00009D000F055FD00F039FD00F045FD10BDB0
:1011000000F04EFD10BD09688907C90FFAD00548E7
:1011100010BD096A8907C90FFAD00120C00310BDAC
:101120000010024000127A0010B5036800225B062E
:10113000DB0F25D10CC98C681A434B6823431A4333
:10114000CB681A430B691A434B691A438B691A43DC
:1011500003680C4C23401A43026042680A4B1A4051
:10116000CB681B0C1A430B681A43426001238A693F
:101170005B0308399A4202D1898C89B2016101224C
:10118000104610BD4000FFFFFBF0FFFF0A06930D65
:10119000054A10B59B189A68090C0F248C40A2438D
:1011A000884002439A6010BD000001400149086078
:1011B000704700004C000020F0B50268194B1A4C33
:1011C000984201D0A04203D17025AA434D682A431A
:1011D000164D174E174F98420AD0A04208D0164C11
:1011E000A04205D0A84203D0B04201D0B84204D1F9
:1011F00003242402A243CC68224302608A68C262AC
:101200000A888262984205D0A84203D0B04201D039
:10121000B84201D1097C0163416901221143416156
:101220001046F0BD002C0140000400400040014089
:10123000004401400048014000200040012910D036
:10124000042910D0102910D0402910D0CA1FF93A13
:1012500005D00122920291420BD105210AE004211E
:1012600008E0002106E0012104E0022102E0032160
:1012700000E00621064A1830525C054B1018DB1DB1
:101280005B5C0421026899408A4302607047000059
:1012900028260008012910D0042910D0102910D0C8
:1012A000402910D0CA1FF93A05D00122920291427A
:1012B0000BD105210AE0042108E0002106E001210C
:1012C00004E0022102E0032100E00621064A183072
:1012D000525C054B1018DB1D5B5C082102689940CD
:1012E0000A4302607047000028260008034610B534
:1012F000002001290DD0102910D0FF39491E12D02D
:101300000F242402A14203D11146184600F088FBA5
:1013100010BD1146184600F0A9FA10BD1146184636
:1013200000F0EAFA10BD1146184600F02DFB10BD82
:10133000FEB5044600680D460026C007C00F43D125
:10134000E9686868AA690843296911430843216864
:101350001E4A114008432060A968606803221203F6
:101360009043084360606969A06812119043084384
:10137000A0601748844203D10020FFF7ABFE06E0CF
:101380001448844220D16846FFF798FE029800284E
:101390001AD02968002917D00126AA69F3039A42B6
:1013A0000CD140004A088018FEF79CFE81B20A4822
:1013B00008400907490F0143E16005E04A08101899
:1013C000FEF790FE80B2E0603046FEBDF369FFFF9D
:1013D0000038014000440040F0FF000008B5064915
:1013E0000A690092421C00D0401C0A69D20300D551
:1013F000401E0028F9D108BD00E000E0F0B5012052
:1014000089B0C004FFF756FD01204004FFF752FDEC
:1014100001208004FFF74EFD0126524FF602BE6206
:101420004020B8628020B8628000B8624010B86284
:1014300001250024092000956946C0060495019401
:10144000FFF7B6FD0220009009206946049501943B
:10145000C006FFF7ADFD0420009009206946049501
:101460000194C006FFF7A4FD0820009009206946FA
:1014700004950194C006FFF79BFD00960326019595
:1014800003946946384602960494FFF791FD402084
:1014900003946A46049461C269463846FFF788FDA2
:1014A000802003946A46049461C269463846FFF777
:1014B0007FFD680203946A46049461C26946384617
:1014C000FFF776FD280203946A46049461C26946D8
:1014D0003846FFF76DFD102003946A46049461C2FC
:1014E00009206946C006FFF763FDA9040120FFF744
:1014F0004DFEE9040120FFF749FE00220221384693
:10150000FFF7C2FD012204213846FFF7BDFD00228E
:1015100002213846FFF7AEFD002204213846FFF7CE
:10152000A9FD02200690684605774477867706A8CD
:10153000FFF7E4FC04200690684605774477867739
:1015400006A8FFF7DBFC0021052000F06DF9064C32
:10155000202020600121062000F066F94020206054
:1015600009B0F0BD0004004880E100E0F0B50120C2
:1015700091B00003FFF7B6FC20200225032769463F
:10158000A1C1002430C109206946C0060594FFF7B7
:101590000FFD402609200096019503946946C00678
:1015A000029704950594FFF703FD80206946A1C1C9
:1015B00030C109206946C0060594FFF7F9FCFF20F9
:1015C000053007900F2000020890012006940A9031
:1015D00040020B90099508200D940E940C90072062
:1015E000074C0F9006A92046FFF79EFD606810216A
:1015F0008843606020683043206011B0F0BD000077
:101600000030014070B58CB0142106A8FEF79BFD98
:1016100018216846FEF797FD0126F6023046FFF7CF
:1016200061FCB001FFF746FC70000090022003212E
:10163000002501AA23C20590092069460495C00629
:10164000FFF7B6FC6846058314480890079509958E
:1016500008A8134C057206A92046FFF7ADFD2168C6
:10166000802081432160A168BF221202914331434F
:10167000A160A168C2010B4B19401143A1606168D0
:10168000702291436160A1688143A1606562206816
:101690000121084320600CB070BD0000FFFF000076
:1016A000002C0140F8BFFFFFF0B593B00220FFF718
:1016B0000DFC0025012610200224032703956A460D
:1016C0000596049591C269462A48FFF771FC2020CF
:1016D00003956A460596049591C269462548FFF729
:1016E00067FC68460587FF204130234C10900F951A
:1016F0000EA911952046FFF75FFD20688027B843AB
:101700002060A0681D490840A06001212046FFF725
:10171000C1FD6020069007950895099506AA01214C
:101720000A952046FFF7E2FD01212046FFF786FDDE
:1017300010212046FFF7AEFD079506AA102120468E
:101740000895FFF7D3FD10212046FFF777FD60686D
:10175000702188436060A068B843A060206A30436D
:101760002062206A102108432062206830432060F4
:1017700013B0F0BD0004004800040040F8BFFFFFB4
:10178000F0B501208DB08003FFF7ACFB00240120F1
:10179000012540020226032703946A460595049416
:1017A000C1C209206946C006FFF702FCA8020394E3
:1017B0006A4605950494C1C209206946C006FFF730
:1017C000F7FB4B20400206900794089409940B9471
:1017D0000C940C200D4C0A9006A92046FFF7A8FD9A
:1017E000A16820158143A160A068A1140843A060EE
:1017F0006068491088436060A06808218843A06041
:101800002068284320600DB0F0BD00000038014082
:1018100010B50C46FEF77CFC08B2002801DA00196E
:1018200000B210BD704700008307FF22DB0E9A4014
:101830008907090E994000280BDA0007000F0838C5
:10184000830808489B001818C36993430B43C3617E
:101850007047830804489B001B181868904308438E
:101860001860704700ED00E000E400E030B5026A67
:10187000520852000262026A436884697025A40813
:10188000A400AC430D682C430225AA430D692A43EA
:1018900052084D6852002A43134DA84208D0134DF8
:1018A000A84205D0124DA84202D0124DA84214D130
:1018B0000825AA434D69AD002A430425AA438D6833
:1018C000AD002A43FF250135AB438D692B4301252C
:1018D0006D02AB43CD696D002B4343608461C968E1
:1018E00041630262012030BD002C014000400140F4
:1018F000004401400048014070B5026A1025AA4327
:101900000262026A4368846973263602B4430E6831
:10191000360234432026B2430E6936013243AA43CD
:101920004D682D012A43144DA84208D0134DA842FA
:1019300005D0134DA84202D0124DA84215D18025E2
:10194000AA434D69AD012A434025AA438D68AD01E4
:101950002A430125AD02AB438D69AD002B43012520
:10196000ED02AB43CD69ED002B4343608461C96850
:1019700081630262012070BD002C014000400140E3
:10198000004401400048014070B5026AFF2501355E
:10199000AA430262026A4368C4697026A408A400CC
:1019A000B4430E6834436E00B2430E6936023243CC
:1019B000AA434D682D022A43154DA84208D0154D63
:1019C000A84205D0144DA84202D0144DA84217D108
:1019D0000125ED02AA434D69AD022A430125AD025E
:1019E000AA438D68AD022A4301252D03AB438D69BF
:1019F0002D012B4301256D03AB43CD696D012B43B5
:101A00004360C461C968C1630262012070BD000007
:101A1000002C0140004001400044014000480140CA
:101A200070B5026A01252D03AA430262026A446866
:101A3000C36973263602B3430E68360233436E0021
:101A4000B2430E6936033243AA434D682D032A433D
:101A50000C4DA84208D00C4DA84205D00B4DA84211
:101A600002D00B4DA84205D10125AD03AC438D69D1
:101A7000AD012C434460C361C96801640262012066
:101A800070BD0000002C01400040014000440140B6
:101A9000004801400C4810B502780146096A002A46
:101AA00001D0491C00E0491E01620846FEF7BCFC5B
:101AB0000649FEF77CFCFEF7C2FC322100F008F874
:101AC0000A20FFF78BFC10BD000000200AD7A342BC
:101AD00070B50C46204DFEF7A7FC2946FEF767FCC3
:101AE000FEF7ADFC01252D032946FFF791FEA91055
:101AF000411809B2A94201DD491B09B24200174849
:101B00004900835E425E20465843C117890D08187C
:101B100081125443E017800D00198212104B1148B6
:101B2000002905DB9963402181618021816205E004
:101B3000494299634021816280218161FF21013105
:101B40004C00002A03DB5A638161846270BD5242FB
:101B50005A638162846170BD0000484136260008E6
:101B60000004004000040048704700000449496830
:101B7000F0221140034A0909515CC8407047000037
:101B8000001002403A46000803494968034A4905E3
:101B9000490F515CC8407047001002404A46000897
:101BA00010B5064841680C200140054805D00429BD
:101BB00003D0082901D100F005F810BD0010024043
:101BC00000127A0010B50C4C6168012212040B4817
:101BD000114002D0914200D14000E16A0907090F8B
:101BE000491CFEF77FFA61680F2292041140890CAC
:101BF000891C484310BD00000010024000093D0050
:101C000010200921C9068862104882689207D20F05
:101C1000FBD00F4A82818268D207D20FFBD0C26804
:101C20001023D2B28B618B6283689B07DB0FFBD0E2
:101C3000084B83818368DB07DB0FFBD0C06800069D
:101C400010238B619101800E08187047003001400D
:101C500055830000A08400007047000038B52CA018
:101C600000F05CFB334C34A000F058FB0421615EB3
:101C700036A000F053FB0621615E39A000F04EFB58
:101C80000821615E3BA000F049FB3FA000F046FB4D
:101C900041A000F043FB694647A0FEF75FFA6846A3
:101CA000017846A000F03AFB68460078642821D00D
:101CB000692813D0702805D07128D4D146A000F02F
:101CC0002DFB38BD47A000F029FB1A4948A0091D8B
:101CD000FEF744FA0421615E46A016E049A000F038
:101CE0001DFB144942A0891DFEF738FA0621615EEA
:101CF00047A00AE04AA000F011FB0E493CA00831C1
:101D0000FEF72CFA0821615E48A000F007FBAAE765
:101D10002D2D2D2D2D2048797065725374657070AE
:101D20006572203230313930383239202D2D2D2D49
:101D30002D0D0A00000000204564697420504944BC
:101D4000206761696E733A0D0A00000070202D2D26
:101D50002D2D2D206B70203D25640D0A0000000004
:101D600069202D2D2D2D2D206B69203D25640D0A18
:101D70000000000064202D2D2D2D2D206B64203DB2
:101D800025640D0A0000000071202D2D2D2D2D2021
:101D9000717569740D0A0000506C65617365206986
:101DA0006E70757420796F757220636F6D6D616EE2
:101DB000643A0D0A0000000025630000596F757237
:101DC00020696E70757420636F6D6D616E6420693B
:101DD000733A25630D0A0000646F6E652E2E2E0D7A
:101DE0000A0000006B70203D203F0D0A000000003B
:101DF000256864006E6577206B70203D2025640D9A
:101E00000A0000006B69203D203F0D0A0000000021
:101E10006E6577206B69203D2025640D0A00000067
:101E20006B64203D203F0D0A000000006E657720A6
:101E30006B64203D2025640D0A000000F8B5FFF713
:101E4000DFFE3F4D4000401900883E4C012160817B
:101E50000920C006FFF707F9002807D0092008214C
:101E6000C006FFF700F9012802D008E0FEF752FD96
:101E700009200421C006FFF7F6F8012808D009263A
:101E8000F60608213046FFF7EEF8002802D007E0FA
:101E9000102015E004213046FFF7E5F8012806D0B0
:101EA00008213046FFF7DFF8012802D007E00820BC
:101EB00006E004213046FFF7D6F800282AD0022099
:101EC000214E607002213046FFF7CDF802461F49CF
:101ED0007020012A20D00A68102382431A430A6026
:101EE00004213046FFF7BFF800270126012816D04D
:101EF0001748A7704763876309200221C006FFF7D0
:101F0000B2F800280DD0E77012482021016040216E
:101F10000160F8BD0420D3E70A688243DFE7A670BA
:101F2000EAE7E670FFF76CFE400040190088608128
:101F300000B220616061A081A061E061E4E700007F
:101F4000008000080000002000040048002C014030
:101F50000004004000E100E07047000070B52F4829
:101F6000012102688A430A4302600068084053D096
:101F70002B4C216801200143216021688907C90F8A
:101F8000FBD02168F8229143802211432160616ACD
:101F900001436162606A8007C00FFBD00521606861
:101FA000C9043D221204904308436060E06A0009BE
:101FB0000001E062206801210906084320602068D2
:101FC0008001C00FFBD06068F021884360606068CA
:101FD000072109028843606061680220890889003E
:101FE000014361600C21606808400828FBD10D4D59
:101FF0002846FFF753F80C4908690422104308618A
:102000002846FFF7D3F8206B80088000206300216A
:10201000481EFFF709FC70BDFEE7000000200240EB
:10202000001002400090D00300E000E01348016877
:102030000122114301604168114A11404160016869
:10204000104A11400160016801229204914301602D
:1020500041683F22120491434160C16A09090901A4
:10206000C162016BFF22143291430163416B490845
:102070004900416300218160704700000010024068
:102080000CB8FF08FFFFF6FEF8B57F480169C907E5
:10209000C90F6FD00121C94301617D497B480860A8
:1020A0007C480078012865D17B487C4E0078CF13AE
:1020B0007B4D7C4C01280FD0716A7B483E46016005
:1020C0007A4800680D1A7648037820461A0400689A
:1020D000F5427DDA1018B2E0FFF792FD7449400036
:1020E0004018008873490880706A6F4A01261060A2
:1020F0006E4AF6031368C31AF34204DA2B78266893
:102100001B049B1905E0BB4204DD2B7826681B04E9
:10211000F31A23602B78246843431D19664B01246E
:102120001D601060654800230022CB5E825E640360
:102130009A1A6348A24202DD0268521E05E0012499
:102140006403E24202DA0268521C026000685F4ED9
:102150008003C4185B482A1B04605B480121C90244
:102160005B4D0260B24202DC7642B24203DA0660A4
:10217000A96101E05FE0A962564A0021515E05684D
:102180006943C817C00E40184111534802688918A6
:102190007D2212020160914202DC5242914200DA39
:1021A00002604E49504A0E784D4900270968D75FB2
:1021B0004E434C494D4A097812687943F7177F0E10
:1021C000A21ABE195143CF17F6117F0F791800E0FC
:1021D00032E0C910711A424E454F31600026BE5F91
:1021E00000686E4340183018C117490E0818C11115
:1021F000550040485519404A0160304E1560338003
:102200003A4E2C4A3460002903DD591952311180AD
:1022100007E0002905DA5224641B1B1B1380494286
:1022200001600168FA2901DDFA21016001780020CE
:10223000105EFFF74DFCF8BDBD4201DD801A206045
:1022400020684B431C4C1818184A20602B4D116015
:102250002A682B49904209D10A887D23521C92B2E8
:10226000DB000A809A4204D30B8007E000220A8038
:1022700004E024498A4201D3502100E0A021FFF765
:1022800027FC20682860F8BD00100040AAAA0000C2
:10229000003000400200002003000020002C01401C
:1022A0000100002010000020240000202800002051
:1022B000008000080A000020140000200C0000200C
:1022C00034000020180000203800002066060000BE
:1022D00000040048060000203C00002038460008AA
:1022E0004000002039460008080000201C000020A3
:1022F0000400002044000020300000202C000020BA
:1023000048000020102700000A2148430004000C68
:1023100003D000BF00BF401EF8E770470FB410B5F0
:1023200003A9044B044A029800F018F810BC08BC3A
:1023300004B01847452500085400002002E008C8F2
:10234000121F08C1002AFAD170477047002001E02F
:1023500001C1121F002AFBD170470000FFB58DB0EC
:102360000F460546002606E025280AD0109A0F9948
:1023700090476D1C761C28780028F5D1304611B0A6
:10238000F0BD00240121674A009400E004436D1C65
:102390002B780846203B98401042F7D128782E2809
:1023A00015D10420044368786D1C2A280AD101CF76
:1023B0006D1C00900BE000990A22514330394018FF
:1023C0006D1C00902878014630390929F3D9287806
:1023D000692843D006DC0028D0D063280BD06428BD
:1023E00004D13BE073280FD075284CD0109A0F9978
:1023F0009047761C94E0387869460872002048724D
:1024000002A80190012003E0386801900020C04339
:102410003F1D61070CD5002400E0641C00998C422C
:102420000FDA8442F9DB0199095D0029F5D108E052
:10243000002400E0641C8442FCDB0199095D002952
:10244000F8D1361907E0019801990078491C0191EB
:10245000109A0F999047641EF5D261E00A2001900E
:1024600001CF002802DA40422D2102E0210504D5E7
:102470002B216A461172012103E0E10701D02021DE
:10248000F7E70C9104E00A20019001CF00210C91A4
:102490000BA90B9108E00199FDF724FE0A460B9960
:1024A0003032491E0B910A700028F4D10B9803A911
:1024B000081A20300190600701D5009801E0012042
:1024C00000900199884203DD01460198081A00E056
:1024D00000200024009006E002A8109A005D0F99E9
:1024E0009047641C761C0C988442F5DB04E0109A3B
:1024F00030200F999047761C0099481E00900029C3
:10250000F5DC08E00B980B990078491C0B91109AA8
:102510000F999047761C0199481E01900029F1DC23
:102520006D1C28E709280100054800E000BFC169CB
:102530008906C90FFAD0024820308088C0B270479F
:10254000003801400549C2B20A8500E000BFCA69EF
:102550001206D20FFAD040220A62704700380140BA
:1025600086B00120FEF7BEFC0021481FFFF75CF992
:102570000021881EFFF758F90021481EFFF754F983
:10258000FFF7ECFCFEF73AFFFEF7F0FFFFF78CF8E1
:10259000FFF7F6F8FFF736F86420FEF71FFFFFF7A6
:1025A0004DFC1020FEF792FC01211120FFF73CF9B1
:1025B0000126164970040860002568460580192028
:1025C000C001134C0290694601952046FEF7F4FDC8
:1025D0002068802188432060E0683043E060206804
:1025E000304320600C480B4901600C490160456094
:1025F0000B490161FF21F5318160C1684907FCD1B8
:1026000008490160FFF72AFBFCE7000000E100E059
:1026100000100040CCCC00000030004055550000B8
:10262000FF0F0000AAAA000000000000040404003C
:10263000000800000008000001000300040006007C
:10264000070009000A000C000E000F001100120024
:1026500014001500170019001A001C001D001F00AF
:102660002000220024002500270028002A002B003B
:102670002D002F00300032003300350036003800C6
:102680003A003B003D003E00400041004300450051
:102690004600480049004B004C004E0050005100DD
:1026A000530054005600570059005A005C005E0069
:1026B0005F006100620064006500670069006A00F5
:1026C0006C006D006F007000720073007500770081
:1026D00078007A007B007D007E008000820083000D
:1026E00085008600880089008B008C008E00900099
:1026F0009100930094009600970099009A009C0026
:102700009E009F00A100A200A400A500A700A800B1
:10271000AA00AB00AD00AF00B000B200B300B5003E
:10272000B600B800B900BB00BC00BE00C000C100CC
:10273000C300C400C600C700C900CA00CC00CD0059
:10274000CF00D100D200D400D500D700D800DA00E5
:10275000DB00DD00DE00E000E100E300E400E60075
:10276000E800E900EB00EC00EE00EF00F100F20001
:10277000F400F500F700F800FA00FB00FD00FE0091
:1027800000010101030104010601080109010B0117
:102790000C010E010F0111011201140115011701A5
:1027A00018011A011B011D011E0120012101230135
:1027B00024012601270129012A012C012D012F01C5
:1027C00030013201330135013601380139013B0155
:1027D0003C013E013F0141014201440145014701E5
:1027E00048014A014B014D014E0150015101530175
:1027F00054015601570158015A015B015D015E0108
:1028000060016101630164016601670169016A0198
:102810006C016D016F01700171017301740176012A
:10282000770179017A017C017D017F0180018201BC
:10283000830184018601870189018A018C018D0150
:102840008F019001920193019401960197019901E2
:102850009A019C019D019E01A001A101A301A40177
:10286000A601A701A801AA01AB01AD01AE01B0010B
:10287000B101B201B401B501B701B801BA01BB01A0
:10288000BC01BE01BF01C101C201C301C501C60136
:10289000C801C901CA01CC01CD01CF01D001D201CB
:1028A000D301D401D601D701D801DA01DB01DD0162
:1028B000DE01DF01E101E201E401E501E601E801F9
:1028C000E901EB01EC01ED01EF01F001F101F30190
:1028D000F401F501F701F801FA01FB01FC01FE0129
:1028E000FF010002020203020402060207020902BB
:1028F0000A020B020D020E020F0211021202130253
:1029000015021602170219021A021B021D021E02EC
:102910001F02210222022302250226022702290287
:102920002A022B022D022E022F0231023202330222
:1029300034023602370238023A023B023C023E02BF
:102940003F0240024202430244024502470248025B
:1029500049024B024C024D024E02500251025202F9
:10296000540255025602570259025A025B025C0297
:102970005E025F0260026102630264026502670236
:10298000680269026A026C026D026E026F027102D5
:1029900072027302740275027702780279027A0277
:1029A0007C027D027E027F02810282028302840217
:1029B00085028702880289028A028C028D028E02B9
:1029C0008F0290029202930294029502960298025C
:1029D00099029A029B029C029E029F02A002A102FF
:1029E000A202A302A502A602A702A802A902AB02A4
:1029F000AC02AD02AE02AF02B002B202B302B40248
:102A0000B502B602B702B802BA02BB02BC02BD02EE
:102A1000BE02BF02C002C202C302C402C502C60295
:102A2000C702C802CA02CB02CC02CD02CE02CF023C
:102A3000D002D102D202D402D502D602D702D802E5
:102A4000D902DA02DB02DC02DE02DF02E002E1028E
:102A5000E202E302E402E502E602E702E802E9023A
:102A6000EB02EC02ED02EE02EF02F002F102F202E2
:102A7000F302F402F502F602F702F802F902FA0292
:102A8000FB02FD02FE02FF02000301030203030337
:102A90000403050306030703080309030A030B03E2
:102AA0000C030D030E030F03100311031203130392
:102AB0001403150316031703180319031A031B0342
:102AC0001C031D031E031F032003210322032303F2
:102AD0002403250326032703280329032A032B03A2
:102AE0002C032D032D032E032F0330033103320358
:102AF00033033403350336033703380339033A030A
:102B00003B033C033C033D033E033F0340034103BF
:102B10004203430344034503460347034703480373
:102B200049034A034B034C034D034E034F034F032A
:102B300050035103520353035403550356035603E2
:102B40005703580359035A035B035C035C035D039B
:102B50005E035F0360036103610362036303640355
:102B60006503660366036703680369036A036B030F
:102B70006B036C036D036E036F036F0370037103CC
:102B80007203730373037403750376037703770388
:102B9000780379037A037A037B037C037D037E0346
:102BA0007E037F0380038103810382038303840305
:102BB00084038503860387038703880389038A03C5
:102BC0008A038B038C038C038D038E038F038F0387
:102BD0009003910391039203930394039403950349
:102BE0009603960397039803980399039A039A030D
:102BF0009B039C039D039D039E039F039F03A003D0
:102C0000A103A103A203A203A303A403A403A50396
:102C1000A603A603A703A803A803A903AA03AA035C
:102C2000AB03AB03AC03AD03AD03AE03AF03AF0324
:102C3000B003B003B103B203B203B303B303B403ED
:102C4000B503B503B603B603B703B703B803B903B7
:102C5000B903BA03BA03BB03BB03BC03BD03BD0383
:102C6000BE03BE03BF03BF03C003C003C103C2034F
:102C7000C203C303C303C403C403C503C503C6031C
:102C8000C603C703C703C803C803C903C903CA03EC
:102C9000CA03CB03CB03CC03CC03CD03CD03CE03BC
:102CA000CE03CF03CF03D003D003D103D103D2038C
:102CB000D203D203D303D303D403D403D503D50360
:102CC000D603D603D703D703D703D803D803D90332
:102CD000D903DA03DA03DA03DB03DB03DC03DC0307
:102CE000DC03DD03DD03DE03DE03DE03DF03DF03DE
:102CF000E003E003E003E103E103E203E203E203B4
:102D0000E303E303E303E403E403E503E503E5038B
:102D1000E603E603E603E703E703E703E803E80364
:102D2000E803E903E903E903EA03EA03EA03EB033F
:102D3000EB03EB03EC03EC03EC03EC03ED03ED031B
:102D4000ED03EE03EE03EE03EE03EF03EF03EF03F9
:102D5000F003F003F003F003F103F103F103F103D7
:102D6000F203F203F203F203F303F303F303F303B7
:102D7000F403F403F403F403F503F503F503F50397
:102D8000F603F603F603F603F603F703F703F70378
:102D9000F703F703F803F803F803F803F803F9035C
:102DA000F903F903F903F903F903FA03FA03FA0340
:102DB000FA03FA03FA03FB03FB03FB03FB03FB0326
:102DC000FB03FB03FC03FC03FC03FC03FC03FC030D
:102DD000FC03FC03FD03FD03FD03FD03FD03FD03F5
:102DE000FD03FD03FD03FE03FE03FE03FE03FE03DE
:102DF000FE03FE03FE03FE03FE03FE03FE03FF03CA
:102E0000FF03FF03FF03FF03FF03FF03FF03FF03B2
:102E1000FF03FF03FF03FF03FF03FF03FF03FF03A2
:102E2000FF03FF03FF03FF03FF03FF03FF03FF0392
:102E3000FF03FF03FF030004FF03FF03FF03FF0380
:102E4000FF03FF03FF03FF03FF03FF03FF03FF0372
:102E5000FF03FF03FF03FF03FF03FF03FF03FF0362
:102E6000FF03FF03FF03FF03FF03FF03FF03FF0352
:102E7000FE03FE03FE03FE03FE03FE03FE03FE034A
:102E8000FE03FE03FE03FE03FD03FD03FD03FD033E
:102E9000FD03FD03FD03FD03FD03FC03FC03FC0335
:102EA000FC03FC03FC03FC03FC03FB03FB03FB032D
:102EB000FB03FB03FB03FB03FA03FA03FA03FA0326
:102EC000FA03FA03F903F903F903F903F903F90320
:102ED000F803F803F803F803F803F703F703F7031D
:102EE000F703F703F603F603F603F603F603F50319
:102EF000F503F503F503F403F403F403F403F30318
:102F0000F303F303F303F203F203F203F203F10317
:102F1000F103F103F103F003F003F003F003EF0317
:102F2000EF03EF03EE03EE03EE03EE03ED03ED0319
:102F3000ED03EC03EC03EC03EC03EB03EB03EB031B
:102F4000EA03EA03EA03E903E903E903E803E80320
:102F5000E803E703E703E703E603E603E603E50325
:102F6000E503E503E403E403E303E303E303E2032C
:102F7000E203E203E103E103E003E003E003DF0334
:102F8000DF03DE03DE03DE03DD03DD03DC03DC033E
:102F9000DC03DB03DB03DA03DA03DA03D903D90347
:102FA000D803D803D703D703D703D603D603D50353
:102FB000D503D403D403D303D303D203D203D20360
:102FC000D103D103D003D003CF03CF03CE03CE036D
:102FD000CD03CD03CC03CC03CB03CB03CA03CA037D
:102FE000C903C903C803C803C703C703C603C6038D
:102FF000C503C503C403C403C303C303C203C2039D
:10300000C103C003C003BF03BF03BE03BE03BD03B0
:10301000BD03BC03BB03BB03BA03BA03B903B903C3
:10302000B803B703B703B603B603B503B503B403D8
:10303000B303B303B203B203B103B003B003AF03EE
:10304000AF03AE03AD03AD03AC03AB03AB03AA0305
:10305000AA03A903A803A803A703A603A603A5031D
:10306000A403A403A303A203A203A103A103A00337
:103070009F039F039E039D039D039C039B039A0351
:103080009A0399039803980397039603960395036D
:1030900094039403930392039103910390038F038A
:1030A0008F038E038D038C038C038B038A038A03A7
:1030B00089038803870387038603850384038403C6
:1030C000830382038103810380037F037E037E03E6
:1030D0007D037C037B037A037A0379037803770308
:1030E0007703760375037403730373037203710329
:1030F00070036F036F036E036D036C036B036B034D
:103100006A03690368036703660366036503640370
:10311000630362036103610360035F035E035D0396
:103120005C035C035B035A035903580357035603BC
:1031300056035503540353035203510350034F03E3
:103140004F034E034D034C034B034A03490348030B
:103150004703470346034503440343034203410334
:1031600040033F033E033D033C033C033B033A0360
:10317000390338033703360335033403330332038B
:10318000310330032F032E032D032D032C032B03B8
:103190002A032903280327032603250324032303E3
:1031A0002203210320031F031E031D031C031B0313
:1031B0001A03190318031703160315031403130343
:1031C0001203110310030F030E030D030C030B0373
:1031D0000A030903080307030603050304030303A3
:1031E000020301030003FF02FE02FD02FB02FA02DA
:1031F000F902F802F702F602F502F402F302F20213
:10320000F102F002EF02EE02ED02EC02EB02E90243
:10321000E802E702E602E502E402E302E202E1027A
:10322000E002DF02DE02DC02DB02DA02D902D802AF
:10323000D702D602D502D402D202D102D002CF02E6
:10324000CE02CD02CC02CB02CA02C802C702C6021D
:10325000C502C402C302C202C002BF02BE02BD0256
:10326000BC02BB02BA02B802B702B602B502B4028F
:10327000B302B202B002AF02AE02AD02AC02AB02C8
:10328000A902A802A702A602A502A302A202A10205
:10329000A0029F029E029C029B029A02990298023F
:1032A0009602950294029302920290028F028E027D
:1032B0008D028C028A0289028802870285028402BA
:1032C0008302820281027F027E027D027C027A02F8
:1032D0007902780277027502740273027202710237
:1032E0006F026E026D026C026A0269026802670276
:1032F000650264026302610260025F025E025C02B8
:103300005B025A02590257025602550254025202F7
:10331000510250024E024D024C024B024902480239
:103320004702450244024302420240023F023E027B
:103330003C023B023A0238023702360234023302C0
:10334000320231022F022E022D022B022A02290202
:103350002702260225022302220221021F021E0248
:103360001D021B021A02190217021602150213028D
:10337000120211020F020E020D020B020A020902D2
:10338000070206020402030202020002FF01FE011C
:10339000FC01FB01FA01F801F701F501F401F30169
:1033A000F101F001EF01ED01EC01EB01E901E801B0
:1033B000E601E501E401E201E101DF01DE01DD01F9
:1033C000DB01DA01D801D701D601D401D301D20142
:1033D000D001CF01CD01CC01CA01C901C801C6018C
:1033E000C501C301C201C101BF01BE01BC01BB01D6
:1033F000BA01B801B701B501B401B201B101B00120
:10340000AE01AD01AB01AA01A801A701A601A4016B
:10341000A301A101A0019E019D019C019A019901B6
:103420009701960194019301920190018F018D0102
:103430008C018A018901870186018401830182014F
:1034400080017F017D017C017A017901770176019C
:1034500074017301710170016F016D016C016A01EA
:1034600069016701660164016301610160015E0138
:103470005D015B015A015801570156015401530186
:10348000510150014E014D014B014A0148014701D4
:1034900045014401420141013F013E013C013B0124
:1034A00039013801360135013301320130012F0174
:1034B0002D012C012A0129012701260124012301C4
:1034C000210120011E011D011B011A011801170114
:1034D00015011401120111010F010E010C010B0164
:1034E0000901080106010401030101010001FE00B8
:1034F000FD00FB00FA00F800F700F500F400F20010
:10350000F100EF00EE00EC00EB00E900E800E6005F
:10351000E400E300E100E000DE00DD00DB00DA00B3
:10352000D800D700D500D400D200D100CF00CD0004
:10353000CC00CA00C900C700C600C400C300C10057
:10354000C000BE00BC00BB00B900B800B600B500AA
:10355000B300B200B000AF00AD00AB00AA00A800FD
:10356000A700A500A400A200A1009F009E009C004F
:103570009A009900970096009400930091009000A3
:103580008E008C008B0089008800860085008300F7
:10359000820080007E007D007B007A00780077004A
:1035A00075007300720070006F006D006C006A009F
:1035B0006900670065006400620061005F005E00F2
:1035C0005C005A0059005700560054005300510047
:1035D00050004E004C004B0049004800460045009A
:1035E0004300410040003E003D003B003A003800EF
:1035F000360035003300320030002F002D002B0044
:103600002A002800270025002400220020001F0097
:103610001D001C001A0019001700150014001200EC
:1036200011000F000E000C000A0009000700060040
:103630000400030001000000FFFFFDFFFCFFFAFF94
:10364000F9FFF7FFF6FFF4FFF2FFF1FFEFFFEEFFE8
:10365000ECFFEBFFE9FFE7FFE6FFE4FFE3FFE1FF3D
:10366000E0FFDEFFDCFFDBFFD9FFD8FFD6FFD5FF91
:10367000D3FFD1FFD0FFCEFFCDFFCBFFCAFFC8FFE6
:10368000C6FFC5FFC3FFC2FFC0FFBFFFBDFFBBFF3B
:10369000BAFFB8FFB7FFB5FFB4FFB2FFB0FFAFFF8F
:1036A000ADFFACFFAAFFA9FFA7FFA6FFA4FFA2FFE3
:1036B000A1FF9FFF9EFF9CFF9BFF99FF97FF96FF37
:1036C00094FF93FF91FF90FF8EFF8DFF8BFF89FF8B
:1036D00088FF86FF85FF83FF82FF80FF7EFF7DFFDF
:1036E0007BFF7AFF78FF77FF75FF74FF72FF70FF33
:1036F0006FFF6DFF6CFF6AFF69FF67FF66FF64FF86
:1037000062FF61FF5FFF5EFF5CFF5BFF59FF58FFD9
:1037100056FF55FF53FF51FF50FF4EFF4DFF4BFF2C
:103720004AFF48FF47FF45FF44FF42FF40FF3FFF7E
:103730003DFF3CFF3AFF39FF37FF36FF34FF33FFD1
:1037400031FF2FFF2EFF2CFF2BFF29FF28FF26FF25
:1037500025FF23FF22FF20FF1FFF1DFF1CFF1AFF75
:1037600018FF17FF15FF14FF12FF11FF0FFF0EFFC9
:103770000CFF0BFF09FF08FF06FF05FF03FF02FF19
:1037800000FFFFFEFDFEFCFEFAFEF8FEF7FEF5FE72
:10379000F4FEF2FEF1FEEFFEEEFEECFEEBFEE9FEC5
:1037A000E8FEE6FEE5FEE3FEE2FEE0FEDFFEDDFE15
:1037B000DCFEDAFED9FED7FED6FED4FED3FED1FE65
:1037C000D0FECEFECDFECBFECAFEC8FEC7FEC5FEB5
:1037D000C4FEC2FEC1FEBFFEBEFEBCFEBBFEB9FE05
:1037E000B8FEB6FEB5FEB3FEB2FEB0FEAFFEADFE55
:1037F000ACFEAAFEA9FEA8FEA6FEA5FEA3FEA2FEA2
:10380000A0FE9FFE9DFE9CFE9AFE99FE97FE96FEF0
:1038100094FE93FE91FE90FE8FFE8DFE8CFE8AFE3E
:1038200089FE87FE86FE84FE83FE81FE80FE7EFE8C
:103830007DFE7CFE7AFE79FE77FE76FE74FE73FED8
:1038400071FE70FE6EFE6DFE6CFE6AFE69FE67FE26
:1038500066FE64FE63FE62FE60FE5FFE5DFE5CFE71
:103860005AFE59FE58FE56FE55FE53FE52FE50FEBD
:103870004FFE4EFE4CFE4BFE49FE48FE46FE45FE08
:1038800044FE42FE41FE3FFE3EFE3DFE3BFE3AFE52
:1038900038FE37FE36FE34FE33FE31FE30FE2EFE9D
:1038A0002DFE2CFE2AFE29FE28FE26FE25FE23FEE6
:1038B00022FE21FE1FFE1EFE1CFE1BFE1AFE18FE2F
:1038C00017FE15FE14FE13FE11FE10FE0FFE0DFE78
:1038D0000CFE0BFE09FE08FE06FE05FE04FE02FEBF
:1038E00001FE00FEFEFDFDFDFCFDFAFDF9FDF7FD0C
:1038F000F6FDF5FDF3FDF2FDF1FDEFFDEEFDEDFD55
:10390000EBFDEAFDE9FDE7FDE6FDE5FDE3FDE2FD9A
:10391000E1FDDFFDDEFDDDFDDBFDDAFDD9FDD7FDDF
:10392000D6FDD5FDD3FDD2FDD1FDCFFDCEFDCDFD24
:10393000CCFDCAFDC9FDC8FDC6FDC5FDC4FDC2FD67
:10394000C1FDC0FDBEFDBDFDBCFDBBFDB9FDB8FDAB
:10395000B7FDB5FDB4FDB3FDB2FDB0FDAFFDAEFDED
:10396000ACFDABFDAAFDA9FDA7FDA6FDA5FDA4FD2F
:10397000A2FDA1FDA0FD9FFD9DFD9CFD9BFD99FD70
:1039800098FD97FD96FD94FD93FD92FD91FD8FFDB1
:103990008EFD8DFD8CFD8BFD89FD88FD87FD86FDEF
:1039A00084FD83FD82FD81FD7FFD7EFD7DFD7CFD2F
:1039B0007BFD79FD78FD77FD76FD74FD73FD72FD6D
:1039C00071FD70FD6EFD6DFD6CFD6BFD6AFD68FDAA
:1039D00067FD66FD65FD64FD62FD61FD60FD5FFDE7
:1039E0005EFD5DFD5BFD5AFD59FD58FD57FD55FD22
:1039F00054FD53FD52FD51FD50FD4EFD4DFD4CFD5E
:103A00004BFD4AFD49FD48FD46FD45FD44FD43FD96
:103A100042FD41FD40FD3EFD3DFD3CFD3BFD3AFDCF
:103A200039FD38FD36FD35FD34FD33FD32FD31FD08
:103A300030FD2FFD2EFD2CFD2BFD2AFD29FD28FD3F
:103A400027FD26FD25FD24FD22FD21FD20FD1FFD76
:103A50001EFD1DFD1CFD1BFD1AFD19FD18FD17FDAA
:103A600015FD14FD13FD12FD11FD10FD0FFD0EFDE2
:103A70000DFD0CFD0BFD0AFD09FD08FD07FD06FD12
:103A800005FD03FD02FD01FD00FDFFFCFEFCFDFC4C
:103A9000FCFCFBFCFAFCF9FCF8FCF7FCF6FCF5FC82
:103AA000F4FCF3FCF2FCF1FCF0FCEFFCEEFCEDFCB2
:103AB000ECFCEBFCEAFCE9FCE8FCE7FCE6FCE5FCE2
:103AC000E4FCE3FCE2FCE1FCE0FCDFFCDEFCDDFC12
:103AD000DCFCDBFCDAFCD9FCD8FCD7FCD6FCD5FC42
:103AE000D4FCD3FCD3FCD2FCD1FCD0FCCFFCCEFC6C
:103AF000CDFCCCFCCBFCCAFCC9FCC8FCC7FCC6FC9A
:103B0000C5FCC4FCC4FCC3FCC2FCC1FCC0FCBFFCC3
:103B1000BEFCBDFCBCFCBBFCBAFCB9FCB9FCB8FCEF
:103B2000B7FCB6FCB5FCB4FCB3FCB2FCB1FCB1FC18
:103B3000B0FCAFFCAEFCADFCACFCABFCAAFCAAFC40
:103B4000A9FCA8FCA7FCA6FCA5FCA4FCA4FCA3FC67
:103B5000A2FCA1FCA0FC9FFC9FFC9EFC9DFC9CFC8D
:103B60009BFC9AFC9AFC99FC98FC97FC96FC95FCB3
:103B700095FC94FC93FC92FC91FC91FC90FC8FFCD6
:103B80008EFC8DFC8DFC8CFC8BFC8AFC89FC89FCFA
:103B900088FC87FC86FC86FC85FC84FC83FC82FC1C
:103BA00082FC81FC80FC7FFC7FFC7EFC7DFC7CFC3D
:103BB0007CFC7BFC7AFC79FC79FC78FC77FC76FC5D
:103BC00076FC75FC74FC74FC73FC72FC71FC71FC7B
:103BD00070FC6FFC6FFC6EFC6DFC6CFC6CFC6BFC99
:103BE0006AFC6AFC69FC68FC68FC67FC66FC66FCB5
:103BF00065FC64FC63FC63FC62FC61FC61FC60FCD2
:103C00005FFC5FFC5EFC5EFC5DFC5CFC5CFC5BFCEA
:103C10005AFC5AFC59FC58FC58FC57FC56FC56FC04
:103C200055FC55FC54FC53FC53FC52FC51FC51FC1C
:103C300050FC50FC4FFC4EFC4EFC4DFC4DFC4CFC33
:103C40004BFC4BFC4AFC4AFC49FC49FC48FC47FC49
:103C500047FC46FC46FC45FC45FC44FC43FC43FC5D
:103C600042FC42FC41FC41FC40FC40FC3FFC3EFC71
:103C70003EFC3DFC3DFC3CFC3CFC3BFC3BFC3AFC84
:103C80003AFC39FC39FC38FC38FC37FC37FC36FC94
:103C900036FC35FC35FC34FC34FC33FC33FC32FCA4
:103CA00032FC31FC31FC30FC30FC2FFC2FFC2EFCB4
:103CB0002EFC2EFC2DFC2DFC2CFC2CFC2BFC2BFCC0
:103CC0002AFC2AFC29FC29FC29FC28FC28FC27FCCE
:103CD00027FC26FC26FC26FC25FC25FC24FC24FCD9
:103CE00024FC23FC23FC22FC22FC22FC21FC21FCE2
:103CF00020FC20FC20FC1FFC1FFC1EFC1EFC1EFCEC
:103D00001DFC1DFC1DFC1CFC1CFC1BFC1BFC1BFCF3
:103D10001AFC1AFC1AFC19FC19FC19FC18FC18FCFA
:103D200018FC17FC17FC17FC16FC16FC16FC15FCFF
:103D300015FC15FC14FC14FC14FC14FC13FC13FC03
:103D400013FC12FC12FC12FC12FC11FC11FC11FC05
:103D500010FC10FC10FC10FC0FFC0FFC0FFC0FFC07
:103D60000EFC0EFC0EFC0EFC0DFC0DFC0DFC0DFC07
:103D70000CFC0CFC0CFC0CFC0BFC0BFC0BFC0BFC07
:103D80000AFC0AFC0AFC0AFC0AFC09FC09FC09FC06
:103D900009FC09FC08FC08FC08FC08FC08FC07FC02
:103DA00007FC07FC07FC07FC07FC06FC06FC06FCFE
:103DB00006FC06FC06FC05FC05FC05FC05FC05FCF8
:103DC00005FC05FC04FC04FC04FC04FC04FC04FCF1
:103DD00004FC04FC03FC03FC03FC03FC03FC03FCE9
:103DE00003FC03FC03FC02FC02FC02FC02FC02FCE0
:103DF00002FC02FC02FC02FC02FC02FC02FC01FCD4
:103E000001FC01FC01FC01FC01FC01FC01FC01FCCA
:103E100001FC01FC01FC01FC01FC01FC01FC01FCBA
:103E200001FC01FC01FC01FC01FC01FC01FC01FCAA
:103E300001FC01FC01FC00FC01FC01FC01FC01FC9B
:103E400001FC01FC01FC01FC01FC01FC01FC01FC8A
:103E500001FC01FC01FC01FC01FC01FC01FC01FC7A
:103E600001FC01FC01FC01FC01FC01FC01FC01FC6A
:103E700002FC02FC02FC02FC02FC02FC02FC02FC52
:103E800002FC02FC02FC02FC03FC03FC03FC03FC3E
:103E900003FC03FC03FC03FC03FC04FC04FC04FC27
:103EA00004FC04FC04FC04FC04FC05FC05FC05FC0F
:103EB00005FC05FC05FC05FC06FC06FC06FC06FCF6
:103EC00006FC06FC07FC07FC07FC07FC07FC07FCDC
:103ED00008FC08FC08FC08FC08FC09FC09FC09FCBF
:103EE00009FC09FC0AFC0AFC0AFC0AFC0AFC0BFCA3
:103EF0000BFC0BFC0BFC0CFC0CFC0CFC0CFC0DFC84
:103F00000DFC0DFC0DFC0EFC0EFC0EFC0EFC0FFC63
:103F10000FFC0FFC0FFC10FC10FC10FC10FC11FC43
:103F200011FC11FC12FC12FC12FC12FC13FC13FC21
:103F300013FC14FC14FC14FC14FC15FC15FC15FCFF
:103F400016FC16FC16FC17FC17FC17FC18FC18FCDA
:103F500018FC19FC19FC19FC1AFC1AFC1AFC1BFCB5
:103F60001BFC1BFC1CFC1CFC1DFC1DFC1DFC1EFC8E
:103F70001EFC1EFC1FFC1FFC20FC20FC20FC21FC66
:103F800021FC22FC22FC22FC23FC23FC24FC24FC3C
:103F900024FC25FC25FC26FC26FC26FC27FC27FC13
:103FA00028FC28FC29FC29FC29FC2AFC2AFC2BFCE7
:103FB0002BFC2CFC2CFC2DFC2DFC2EFC2EFC2EFCBA
:103FC0002FFC2FFC30FC30FC31FC31FC32FC32FC8D
:103FD00033FC33FC34FC34FC35FC35FC36FC36FC5D
:103FE00037FC37FC38FC38FC39FC39FC3AFC3AFC2D
:103FF0003BFC3BFC3CFC3CFC3DFC3DFC3EFC3EFCFD
:104000003FFC40FC40FC41FC41FC42FC42FC43FCC8
:1040100043FC44FC45FC45FC46FC46FC47FC47FC95
:1040200048FC49FC49FC4AFC4AFC4BFC4BFC4CFC60
:104030004DFC4DFC4EFC4EFC4FFC50FC50FC51FC2A
:1040400051FC52FC53FC53FC54FC55FC55FC56FCF3
:1040500056FC57FC58FC58FC59FC5AFC5AFC5BFCBB
:104060005CFC5CFC5DFC5EFC5EFC5FFC5FFC60FC81
:1040700061FC61FC62FC63FC63FC64FC65FC66FC47
:1040800066FC67FC68FC68FC69FC6AFC6AFC6BFC0B
:104090006CFC6CFC6DFC6EFC6FFC6FFC70FC71FCCE
:1040A00071FC72FC73FC74FC74FC75FC76FC76FC91
:1040B00077FC78FC79FC79FC7AFC7BFC7CFC7CFC52
:1040C0007DFC7EFC7FFC7FFC80FC81FC82FC82FC12
:1040D00083FC84FC85FC86FC86FC87FC88FC89FCD0
:1040E00089FC8AFC8BFC8CFC8DFC8DFC8EFC8FFC8F
:1040F00090FC91FC91FC92FC93FC94FC95FC95FC4B
:1041000096FC97FC98FC99FC9AFC9AFC9BFC9CFC06
:104110009DFC9EFC9FFC9FFCA0FCA1FCA2FCA3FCC0
:10412000A4FCA4FCA5FCA6FCA7FCA8FCA9FCAAFC7A
:10413000AAFCABFCACFCADFCAEFCAFFCB0FCB1FC33
:10414000B1FCB2FCB3FCB4FCB5FCB6FCB7FCB8FCEB
:10415000B9FCB9FCBAFCBBFCBCFCBDFCBEFCBFFCA2
:10416000C0FCC1FCC2FCC3FCC4FCC4FCC5FCC6FC56
:10417000C7FCC8FCC9FCCAFCCBFCCCFCCDFCCEFC0B
:10418000CFFCD0FCD1FCD2FCD3FCD3FCD4FCD5FCBE
:10419000D6FCD7FCD8FCD9FCDAFCDBFCDCFCDDFC73
:1041A000DEFCDFFCE0FCE1FCE2FCE3FCE4FCE5FC23
:1041B000E6FCE7FCE8FCE9FCEAFCEBFCECFCEDFCD3
:1041C000EEFCEFFCF0FCF1FCF2FCF3FCF4FCF5FC83
:1041D000F6FCF7FCF8FCF9FCFAFCFBFCFCFCFDFC33
:1041E000FEFCFFFC00FD01FD02FD03FD05FD06FDDB
:1041F00007FD08FD09FD0AFD0BFD0CFD0DFD0EFD83
:104200000FFD10FD11FD12FD13FD14FD15FD17FD31
:1042100018FD19FD1AFD1BFD1CFD1DFD1EFD1FFDDA
:1042200020FD21FD22FD24FD25FD26FD27FD28FD85
:1042300029FD2AFD2BFD2CFD2EFD2FFD30FD31FD2E
:1042400032FD33FD34FD35FD36FD38FD39FD3AFDD7
:104250003BFD3CFD3DFD3EFD40FD41FD42FD43FD7E
:1042600044FD45FD46FD48FD49FD4AFD4BFD4CFD25
:104270004DFD4EFD50FD51FD52FD53FD54FD55FDCC
:1042800057FD58FD59FD5AFD5BFD5DFD5EFD5FFD6F
:1042900060FD61FD62FD64FD65FD66FD67FD68FD15
:1042A0006AFD6BFD6CFD6DFD6EFD70FD71FD72FDB7
:1042B00073FD74FD76FD77FD78FD79FD7BFD7CFD5A
:1042C0007DFD7EFD7FFD81FD82FD83FD84FD86FDFC
:1042D00087FD88FD89FD8BFD8CFD8DFD8EFD8FFD9D
:1042E00091FD92FD93FD94FD96FD97FD98FD99FD3E
:1042F0009BFD9CFD9DFD9FFDA0FDA1FDA2FDA4FDDC
:10430000A5FDA6FDA7FDA9FDAAFDABFDACFDAEFD7B
:10431000AFFDB0FDB2FDB3FDB4FDB5FDB7FDB8FD19
:10432000B9FDBBFDBCFDBDFDBEFDC0FDC1FDC2FDB7
:10433000C4FDC5FDC6FDC8FDC9FDCAFDCCFDCDFD52
:10434000CEFDCFFDD1FDD2FDD3FDD5FDD6FDD7FDF0
:10435000D9FDDAFDDBFDDDFDDEFDDFFDE1FDE2FD8A
:10436000E3FDE5FDE6FDE7FDE9FDEAFDEBFDEDFD25
:10437000EEFDEFFDF1FDF2FDF3FDF5FDF6FDF7FDC0
:10438000F9FDFAFDFCFDFDFDFEFD00FE01FE02FE55
:1043900004FE05FE06FE08FE09FE0BFE0CFE0DFEE9
:1043A0000FFE10FE11FE13FE14FE15FE17FE18FE82
:1043B0001AFE1BFE1CFE1EFE1FFE21FE22FE23FE19
:1043C00025FE26FE28FE29FE2AFE2CFE2DFE2EFEB0
:1043D00030FE31FE33FE34FE36FE37FE38FE3AFE46
:1043E0003BFE3DFE3EFE3FFE41FE42FE44FE45FEDC
:1043F00046FE48FE49FE4BFE4CFE4EFE4FFE50FE72
:1044000052FE53FE55FE56FE58FE59FE5AFE5CFE05
:104410005DFE5FFE60FE62FE63FE64FE66FE67FE9A
:1044200069FE6AFE6CFE6DFE6EFE70FE71FE73FE2E
:1044300074FE76FE77FE79FE7AFE7CFE7DFE7EFEC1
:1044400080FE81FE83FE84FE86FE87FE89FE8AFE54
:104450008CFE8DFE8FFE90FE91FE93FE94FE96FEE6
:1044600097FE99FE9AFE9CFE9DFE9FFEA0FEA2FE78
:10447000A3FEA5FEA6FEA8FEA9FEAAFEACFEADFE0A
:10448000AFFEB0FEB2FEB3FEB5FEB6FEB8FEB9FE9C
:10449000BBFEBCFEBEFEBFFEC1FEC2FEC4FEC5FE2C
:1044A000C7FEC8FECAFECBFECDFECEFED0FED1FEBC
:1044B000D3FED4FED6FED7FED9FEDAFEDCFEDDFE4C
:1044C000DFFEE0FEE2FEE3FEE5FEE6FEE8FEE9FEDC
:1044D000EBFEECFEEEFEEFFEF1FEF2FEF4FEF5FE6C
:1044E000F7FEF8FEFAFEFCFEFDFEFFFE00FF02FFF7
:1044F00003FF05FF06FF08FF09FF0BFF0CFF0EFF80
:104500000FFF11FF12FF14FF15FF17FF18FF1AFF0F
:104510001CFF1DFF1FFF20FF22FF23FF25FF26FF9B
:1045200028FF29FF2BFF2CFF2EFF2FFF31FF33FF2A
:1045300034FF36FF37FF39FF3AFF3CFF3DFF3FFFB7
:1045400040FF42FF44FF45FF47FF48FF4AFF4BFF44
:104550004DFF4EFF50FF51FF53FF55FF56FF58FFD1
:1045600059FF5BFF5CFF5EFF5FFF61FF62FF64FF5F
:1045700066FF67FF69FF6AFF6CFF6DFF6FFF70FFEB
:1045800072FF74FF75FF77FF78FF7AFF7BFF7DFF77
:104590007EFF80FF82FF83FF85FF86FF88FF89FF04
:1045A0008BFF8DFF8EFF90FF91FF93FF94FF96FF8F
:1045B00097FF99FF9BFF9CFF9EFF9FFFA1FFA2FF1C
:1045C000A4FFA6FFA7FFA9FFAAFFACFFADFFAFFFA7
:1045D000B0FFB2FFB4FFB5FFB7FFB8FFBAFFBBFF34
:1045E000BDFFBFFFC0FFC2FFC3FFC5FFC6FFC8FFBF
:1045F000CAFFCBFFCDFFCEFFD0FFD1FFD3FFD5FF4A
:10460000D6FFD8FFD9FFDBFFDCFFDEFFE0FFE1FFD5
:10461000E3FFE4FFE6FFE7FFE9FFEBFFECFFEEFF60
:10462000EFFFF1FFF2FFF4FFF6FFF7FFF9FFFAFFEC
:10463000FCFFFDFFFFFF0000641C00000000000005
:10464000000001020304060708090000000001023F
:104650000304DDDDDDDDDCBBBBDDDDDDDDDDDDDD82
:10466000DDDD988888888888888877777777778865
:1046700088888555555666666666666666666668A7
:1046800088888333333222222222222222222228A5
:10469000888D0000B4460008000000205C00000087
:1046A0003C230008104700085C00002004040000C0
:1046B0004C230008010001003C00050064000000DC
:1046C00000000000000000000000000000000000EA
:1046D00000000000000000000000000000000000DA
:1046E00000000000000000000000000000000000CA
:1046F00000000000000000000000000000000000BA
:1047000000127A000000000000000000000000001D
:04000005080000B53A
:00000001FF
